:020000040800F2
:10000000E004002001010008C30E0008510D0008A3
:10001000C10E0008490100089B1100080000000003
:10002000000000000000000000000000E70E0008D3
:100030004B01000800000000E50E0008E90E000872
:100040001B0100081B0100081B0100081B01000820
:100050001B0100081B0100081B0100081B01000810
:100060001B0100081B0100081B0100081B01000800
:100070001B0100081B0100081B0100081B010008F0
:100080001B0100081B0100081B0100081B010008E0
:100090001B0100081B0100081B0100081B010008D0
:1000A0001B0100081B0100081B0100081B010008C0
:1000B000A90F00081B010008591000081B010008C7
:1000C0001B0100081B0100081B0100081B010008A0
:1000D0001B0100081B0100081B0100081B01000890
:1000E0001B0100081B0100081B010008DFF80CD0F1
:1000F00000F018F800480047FD110008E004002057
:100100000648804706480047FEE7FEE7FEE7FEE7B1
:10011000FEE7FEE7FEE7FEE7FEE7FEE7610F000809
:10012000ED000008064C074D06E0E06840F00103D2
:1001300094E8070098471034AC42F6D3FFF7DAFF93
:100140002014000840140008FEE770472DE9F84F1E
:10015000DFF890A100220AF1040B144601274FF0AA
:100160000F090BF1040E00BF0B6807FA04F52B40D2
:10017000AB4274D1DFF870C14E68A6EB0C0866453F
:100180002BD00DDC032E34D005DC36B3012E19D074
:10019000022E2FD11BE0112E16D0122E2AD119E0DB
:1001A000B8F5881F19D006DCB8F5803F15D0B8F532
:1001B000801F1FD111E0B8F5001F0ED0B8F5041F45
:1001C00018D10AE0CA6815E0CA68121D12E0CA68B0
:1001D00008320FE0CA680C320CE08A682AB1012AA2
:1001E0004FF0080203D0456104E0042202E00561FB
:1001F00000E00022FF2B01D8064601E000F10406D2
:100200004FEA840501D9A5F12005D6F800C009FA06
:1002100005F82CEA080C02FA05F54CEA050CC6F8BC
:1002200000C04D68ED0057D5304DAE6946F001066F
:10023000AE61AD6924F0030605F0010500952C4D73
:1002400006EB050CDCF80850A6074FEA167809FA09
:1002500008F6B543274EB04202D1002610E03BE03D
:10026000254EB04201D101260AE0244EB04201D110
:10027000022605E0224EB04201D1032600E004260A
:1002800006FA08F62E43CCF808604D68DAF80060EC
:10029000ED03554601D51E4300E09E432E604D6898
:1002A000DBF80060AD035D4601D51E4300E09E43D0
:1002B0002E604D68DEF80060ED02754601D51E43E4
:1002C00000E09E432E604D68AD020E4D2E6801D5B4
:1002D0001E4300E09E432E60641C102CFFF444AFCC
:1002E000BDE8F88F0004014000001110001002402A
:1002F0000000014000080140000C014000100140D6
:10030000001401400C0401408068084000D0012026
:1003100070470AB1016170470904FBE70148806832
:1003200070470000400000200248816802781144B4
:100330008160704740000020074810B5016841F017
:1003400010010160032000F09DF8002000F006F885
:1003500000F024F8002010BD0020024070B50D4DC3
:1003600004464FF47A712878B1FBF0F00A49096825
:10037000B1FBF0F000F00DFB48B9102C07D20022C1
:100380002146501E00F05EF800206C6070BD012018
:1003900070BD0000400000204C000020214808B53E
:1003A000816941F001018161816901F001010091E0
:1003B000C16941F08051C161C06900F08050009076
:1003C000032000F05FF8002211466FF00B0000F0F0
:1003D00039F8002211466FF00A0000F033F80022CD
:1003E00011466FF0090000F02DF800221146501F51
:1003F00000F028F800221146101F00F023F8002218
:100400001146901E00F01EF800221146501E00F00A
:1004100019F80548416821F0E06141F00071416040
:1004200008BD0000001002400000014000F01F0263
:10043000012191404009800000F1E020C0F8001146
:1004400070470000F0B40E4B1B680C46C3F3022348
:10045000C3F10705042D00D90425191D072901D270
:10046000002300E0DB1E012606FA05F1491E2140AB
:1004700099409E40761E16403143F0BC00F022BDEC
:100480000CED00E0064900F0070208684FF6FF0394
:10049000184040EA0220034A1043086070470000F9
:1004A0000CED00E00000FA052DE9F047DFF83C8193
:1004B00005460E46D8F8000000F00700B0420CD206
:1004C000D8F8001021F007013143C8F80010D8F81F
:1004D000000000F00700B04263D12878444C800748
:1004E00005D56068A96820F0F000084360602878AE
:1004F000C00745D06868012816D02168022816D0A8
:10050000890700294DDA616821F003010143616028
:10051000FFF704FF6968074641F2883001290FD0D0
:100520000229814619D027E021688903E9E789017A
:10053000E7E700BFFFF7F2FEC11B494501D918E00C
:1005400081466068C0F381000128F3D118E000BF44
:10055000FFF7E4FEC11B49450BD86068C0F381007A
:100560000228F5D10CE000BFFFF7D8FEC11B4945BA
:1005700002D90320BDE8F087606810F00C0FF3D1BA
:10058000D8F80010404601F00701B1420BD90168CC
:1005900021F0070131430160006800F00700B0421C
:1005A00001D00120E6E72878400705D56068E968B2
:1005B00020F4E060084360602878000706D5606892
:1005C000296920F4605040EAC100606000F01CF826
:1005D0006168084AC1F30311515CC84006490860CC
:1005E0000020FFF7BBFE0020C4E70000002002400F
:1005F00000100240101400084C0000200148006860
:10060000704700004C00002012A185B00FC98DE892
:100610000F0014A0144A006804905168134801F0B8
:100620000C03042B10D0082B0ED1C1F38343C90354
:100630001DF803000AD5516804AAC1F34041515C7A
:100640000A4A5043B0FBF1F005B0704708494843EF
:10065000FAE7000002030405060708090A0B0C0D5F
:100660000E0F1010010200000010024000127A006C
:1006700000093D002DE9F84F04460078B94DC00748
:1006800048D06868C0F38100012807D06868C0F3CB
:100690008100022809D16868C00306D52868800354
:1006A00038D5606800286FD034E06068B0F5803FCE
:1006B0000BD010B1B0F5A02F11D0286820F48030F5
:1006C0002860286820F4802002E0286840F4803008
:1006D0002860606888B1FFF721FE064609E02868B7
:1006E00040F480202860F0E7FFF718FE801B6428A4
:1006F00075D828688003F7D50CE0FFF70FFE064693
:1007000005E000BFFFF70AFE801B6428F0D82868C8
:100710008003F7D42078944E80074FF001094FF002
:1007200000083BD5686810F00C0F07D06868C0F36C
:100730008100022809D16868C00306D428688007B0
:1007400014D5206901281FD110E02069B0B1C6F886
:100750000090FFF7E3FD074605E000BFFFF7DEFD71
:10076000C01B0228C4D828688007F7D528686169AB
:1007700020F0F80040EAC10028600FE0C6F80080D1
:10078000FFF7CCFD074606E0E9E000BFFFF7C6FD36
:10079000C01B022823D828688007F7D420780007D8
:1007A0002CD57248A169D9B1C0F80090FFF7B6FD09
:1007B000074604E0FFF7B2FDC01B02280FD8686AA5
:1007C0008007F7D56A484FF4FA510068B0FBF1F0A2
:1007D000009000BF0098411E0091FAD20EE080E028
:1007E000C0F80080FFF79AFD074604E0FFF796FD8A
:1007F000C01B022875D8686A8007F7D420784007A4
:1008000060D5E8690027C00008D4E86940F080504E
:10081000E861E869012700F08050009055480168C0
:10082000C90513D40168834641F480710160FFF764
:1008300075FD824606E000BFFFF770FDA0EB0A00E1
:1008400064284ED8DBF80000C005F5D5E068012823
:100850000AD008B1052813D0286A20F001002862C8
:10086000286A20F0040002E0286A40F001002862B3
:10087000E06841F2883B98B1FFF750FD82460BE0FB
:10088000286A40F004002862EEE700BFFFF746FD4B
:10089000A0EB0A0159455AD8286A8007F6D50CE022
:1008A000FFF73CFD824605E0FFF738FDA0EB0A01AB
:1008B00059454CD8286A8007F6D41FB1E86920F062
:1008C0008050E861E06988B36968C1F38101022959
:1008D00045D00228C6F8608004D0FFF71FFD04460B
:1008E00038E034E0FFF71AFD074604E0FFF716FD95
:1008F000C01B02282BD828688001F7D4206AB0F5E5
:10090000803F05D16868A16820F400300843686022
:10091000D4E908010843696821F474110843686048
:10092000C6F86090FFF7FAFC044606E015E000BF49
:10093000FFF7F4FC001B022809D828688001F7D5CE
:100940000BE000BFFFF7EAFC001B022802D90320DE
:10095000BDE8F88F28688001F4D40020F8E7012072
:10096000F6E70000001002400000424280044242CC
:100970004C000020007000404FF0E021042808697E
:1009800003D020F004000861704740F00400FAE74B
:10099000704710B5401EB0F1807F01D3012010BD1B
:1009A0004FF0E02460610F21601700F08BFA002007
:1009B000A06107202061002010BD10B5FFF7E8FFFF
:1009C00010BD7047704730B590F83C20012A20D008
:1009D000012280F83C20022380F83D3003685C68E7
:1009E00024F070045C6003685C680D682C435C60F4
:1009F00003689C6824F080049C6003689C684968D4
:100A00000C439C6080F83D20002180F83C10084693
:100A100030BD022030BD10B5040003D094F83D0075
:100A200010B107E0012010BD002084F83C002046F2
:100A300000F00CF8022084F83D00211D206800F031
:100A400041FB012084F83D00002010BD08B501687D
:100A50001448B1F1804F14D0134A914220D1C1699A
:100A600041F00401C161C069002200F0040000905F
:100A700011461E20FFF7E6FC1E20BDE80840FFF7E8
:100A8000D5BCC16941F00101C161C069002200F01B
:100A90000100009011461C20FFF7D4FC1C20ECE75D
:100AA00008BD000000100240000800400168CA684C
:100AB00042F00102CA600068016841F00101016072
:100AC000002070470168CA6822F00102CA6000680D
:100AD000016A41F21112114207D1016A92101142CA
:100AE00003D1016821F0010101600020704770B559
:100AF000044690F83C00012817D0012584F83C50AA
:100B0000022084F83D002068826822F0770222F4F7
:100B10007F4282600868502837D00DDC202859D0E9
:100B200005DC88B3102841D151E0022070BD302887
:100B300053D040283AD13FE060282ED070280BD007
:100B4000B0F5805F03D0B0F5005F2FD110E02068D2
:100B5000816821F0070115E0CB68D1E90121206807
:100B600000F0E6FA2168886840F0770088601DE0B0
:100B7000CB68D1E90121206800F0DAFA20688168A9
:100B800041F48041816011E01EE0CA684968206834
:100B900000F0E0FA5021206806E0CA684968206841
:100BA00000F0E9FA6021206800F0CCFA84F83D50AA
:100BB000002084F83C0070BDCA684968206800F0D5
:100BC000C9FA40212068EFE700212068ECE71021F6
:100BD0002068E9E720212068E6E730212068E3E784
:100BE000704770B50446006801694FF00005C943BD
:100BF000890715D4C168C943890711D4E91E016169
:100C000001202077206880698007204602D0FFF706
:100C1000E7FF04E000F098F8204600F096F825770A
:100C200020680169C943490717D4C168C943490706
:100C300013D46FF0040101610220207720688069DD
:100C400010F4407F204602D0FFF7CAFF04E000F016
:100C50007BF8204600F079F8257720680169C943C0
:100C6000090716D4C168C943090712D46FF00801F7
:100C70000161042020772068C0698007204602D0E7
:100C8000FFF7AEFF04E000F05FF8204600F05DF8EB
:100C9000257720680169C943C90617D4C168C943CB
:100CA000C90613D46FF01001016108202077206875
:100CB000C06910F4407F204602D0FFF791FF04E0A6
:100CC00000F042F8204600F040F8257720680169DE
:100CD000C943C90708D1C168C943C90704D1891EDE
:100CE0000161204600F032F820680169C943090615
:100CF00009D4C168C943090605D46FF080010161B8
:100D00002046FFF75EFE20680169C943490609D401
:100D1000C168C943490605D46FF04001016120460E
:100D200000F015F820680169C94389060BD4C16831
:100D3000C943890607D46FF0200101612046BDE850
:100D40007040FFF73FBE70BD7047704770477047F7
:100D5000FEE700002DE9F0432B4885B0816941F0A2
:100D600010018161816901F010010491816941F0F4
:100D700020018161816901F020010491816941F0C4
:100D800004018161816901F004010491816941F0EC
:100D9000080181618069DFF8748000F008004FF479
:100DA00000440490002221464046FFF7B2FADFF8E3
:100DB00060904FF6F077002239464846FFF7A9FACF
:100DC0000126CDE900460024022569464046CDE9CA
:100DD0000245FFF7BBF9FF208DE8310069460D4859
:100DE000FFF7B4F909208DE8310069464846FFF75E
:100DF000ADF9CDE9007669464846CDE90245FFF7F1
:100E0000A5F905B0BDE8F0830010024000100140D4
:100E1000000C01400008014010B5134886B04FF0A7
:100E20008041016009210024C0E90114C721C0E903
:100E3000031480218161FFF7EEFD00B1FEE74FF45E
:100E40008050009069460848FFF751FE00B1FEE768
:100E5000049404A904480594FFF7B5FD002800D0C8
:100E6000FEE706B010BD00005C00002010B513487E
:100E700086B01149016009210024C0E90114412113
:100E8000C0E9031480218161FFF7C5FD00B1FEE7D1
:100E90004FF48050009069460848FFF728FE00B1E3
:100EA000FEE7049404A905480594FFF78CFD00288B
:100EB00000D0FEE706B010BD000800409C000020F6
:100EC000FEE770470907090E002806DA00F00F0058
:100ED00000F1E02080F8141D704700F1E02080F858
:100EE000001470477047704710B5FFF71DFABDE852
:100EF0001040FFF762BD30B58FB001210804CDE985
:100F000000100024029402250491CDE907504FF40B
:100F1000E01009906846FFF7ADFB00B1FEE70F2037
:100F2000CDE90A054FF48060CDE90C4002210AA802
:100F30000E94FFF7B9FA00B1FEE7FFF75FFB4FF43D
:100F40007A71B0FBF1F0FFF724FD0420FFF714FDE8
:100F500000221146501EFFF775FA0FB030BD000099
:100F60000D48016841F00101016041680B4A1140E0
:100F7000416001680A4A11400160016821F4802142
:100F80000160416821F4FE0141604FF41F0181605E
:100F90000449C00308607047001002400000FFF8D9
:100FA000FFFFF6FE08ED00E02DE9F0411F49204A61
:100FB000214B08781070C0F10102D2B20A701D49AD
:100FC0000024012518B912B10D701C7001E00C70DD
:100FD0001D701A490868401CC21700EB927222F07B
:100FE0000302801A08601BD1154E164F30783870F6
:100FF000C0F1010010F0FF011348317001D001224F
:1010000000E000221021FFF784F93A780F481049D8
:1010100022B9327812B105700C7001E004700D70C5
:10102000BDE8F0410B48FFF7DCBD000039000020AF
:101030003B0000200B0000200C0000203C000020A2
:10104000380000203A000020000C01400D00002074
:101050000E0000205C00002070B5154C0621154ED6
:101060002078154D401CB0FBF1F201FB12002070FE
:10107000022804D101213046FFF746F92860207884
:10108000032804D101213046FFF73EF9686020783B
:10109000042807D101213046FFF736F90749A86037
:1010A00001200860BDE870400548FFF79ABD0000C8
:1010B0000A000020000C0140500000201400002015
:1010C0009C000020F0B50268164B174C174D4FF0EE
:1010D0008047984205D0B84203D0A04201D0A84230
:1010E00003D122F070064A683243984205D0B842D4
:1010F00003D0A04201D0A84203D122F44074CA68B0
:10110000224322F080044A69224302608A68C26254
:101110000A688262984201D1096901630121416133
:10112000F0BD0000002C0140000400400008004019
:1011300010B5846842EA032224F47F440A43224320
:10114000826010BD826822F070020A4342F00701FB
:101150008160704710B5036A046A24F001040462D8
:10116000846924F0F00444EA021423F00A020A43DA
:101170008461026210BD10B5036A23F0100303629C
:101180008369046A23F4704343EA023224F0A00323
:1011900043EA01118261016210BDFEE702E008C866
:1011A000121F08C1002AFAD170477047002001E0E1
:1011B00001C1121F002AFBD17047000070B50D4C11
:1011C000A07B002814D00C4D08212846FFF79CF87E
:1011D000A07140212846FFF797F86071A179012995
:1011E00006D1002804D1206A0078A0610120207275
:1011F00070BD000000000020000C0140FFF79CF8CB
:10120000FFF779FEFFF7A6FDFFF706FEFFF72EFEBC
:101210000B48FFF74BFC012220210A48FFF779F821
:101220000122D1030848FFF774F800BFFFF7C6FF9B
:1012300000F0A4F800F00AF800F06CF8F6E70000FF
:101240005C000020000C01400010014070B52E4CE5
:101250004FF001064FF00005216BA06A08430BD147
:1012600001212A48FFF750F8207028B92848FFF7D5
:101270001DFCE561A5722663606900283AD0244808
:101280004C38D0E90012806811440844012801DD7F
:10129000A67000E0A570A06A38B10421012808D02A
:1012A000022828D004281CD023E0A07808BBA6621E
:1012B0001FE094F91000E26A082809DAA1784A4090
:1012C0008140C9B2E262A170E2690A43E26104E0CE
:1012D000A3789A4204D10221A162401C207408E044
:1012E000A162A56226702574E56209482563FFF7AF
:1012F000E9FB656170BDA0780128F1D194F9100077
:101300000A28EAD16672EBE700000020000C0140D9
:101310009C00002010B5174C607A012821D1607B19
:10132000F8B11548616B11B1022911D019E0E169DA
:101330000902E161626A116821F47F411160E36989
:101340001943116001228021FEF7E3FF012007E02D
:1013500000228021FEF7DDFF0020E0716072E06175
:101360006063A07B002804D0606B002801D00220BD
:10137000606310BD00000020000C014070B5214CDE
:10138000207A70B3E07A60B3E07850B3E07B1E4E11
:1013900048B9012240213046FEF7BBFFA06940F466
:1013A000C0604000A06194F90F0000250C2819DAF4
:1013B000092813D0207E00F001006070217941409F
:1013C0002171C2B24FF400411048FEF7A2FFE07B4A
:1013D000401CE073A0694008A0610BE020796070B8
:1013E000EFE708E0002240213046FEF792FF257229
:1013F000E5732571E570207B002801D00120E070A5
:1014000070BD000000000020000C014000100140F1
:1014100000000000000000000102030406070809A4
:101420004014000800000020500000009C1100083B
:10143000901400085000002090040000AC11000837
:10144000010000000000000000000000000000009B
:10145000000000000000000000000000000000008C
:10146000080801400C0C01400000000000000000D2
:10147000000000000000000000000000000000006C
:1014800001000000100000000000000000A24A045B
:04000005080000ED02
:00000001FF
